:100000000C94174C0C94384C0C94EAD20C94384C49
:100010000C94384C0C94384C0C94384C0C94384C50
:100020000C94384C0C94384C0C94384C0C942DD5C2
:100030000C94384C0C94384C0C94A3B70C94384C5A
:100040000C94384C0C94384C0C94384C0C94384C20
:100050000C94384C0C94384C0C94384C0C94384C10
:100060000C94384C0C9404D30C9493D20C94384CCC
:100070000C9415CC0C94B7CB0C94F3CB0C94384C5B
:100080000C94B5D30C94384C0C94384C0C94384CDC
:100090000C94384C0C94384C0C94384C0C94384CD0
:1000A0000C94384C0C94384C0C94384C0C9477BE0F
:1000B0000C941BBF0C94384C0C94384C0C9494B991
:1000C0000C94384C0C94384C0C94384C0C94384CA0
:1000D0000C94384C0C94384C0C94384C0C94384C90
:1000E0000C9492A90C94384C0C94384C0C94384CC9
:1000F0000C94384C0C94384C0C94384C0C94384C70
:100100000C944EBE0C94F2BE0C9425BE0C94C9BE49
:100110000C94384C0C94384C0C94384C0C94384C4F
:100120000C94384C0C94384C0C94384C0C94384C3F
:100130000C94384C0C94F8B80C94384C0C94384C03
:100140000C94384C0C94384C0C94384C0C94384C1F
:100150000C94384C0C94384C0C9488A90C94384C62
:100160000C94384C0C94384C0C94384C0C94384CFF
:100170000C94384C0C94384C0C94384C0C94384CEF
:100180000C94384C0C94384C0C94384C0C94384CDF
:100190000C94384C0C94384C0C94384C0C94384CCF
:1001A0000C94A0BE0C9444BF0C94384C0C94384C66
:1001B0000C9446B90C94384C0C94384C0C94384C34
:1001C0000C94384C0C94384C0C94384C0C94384C9F
:1001D0000C94384C0C94384C0C94384C0C94384C8F
:1001E0000C94384C0C94384C8E749874A274AC7483
:1001F000B774F77AF77AF77AF77AF77ABD74F77AFD
:10020000F77AF77AF77AF77AF77ABF74C974D37402
:10021000DD74E774F77AF77AF77AF77AF77AF77A8C
:10022000F174F77A4775F77AF77AF77AF77AF77A07
:10023000F77AF77A8675F77AD178F77AF77AF77AD4
:10024000F77AF77AF77AF77AF77AD178F77AF77A4E
:10025000F77AB375B875C275CC75CE75D875E37578
:10026000F77AEE75F77AF77A2B76F77AF77AF77AE4
:10027000F77AF77AF77AF77AF77AF77AF77AF77AF6
:10028000F77AF77AF77AF77A3576F77AF77AF77AAC
:10029000F77AF77AF77AF77AF77AF77A3F767C7611
:1002A000B97602770C77277727773177F57A3B771E
:1002B00045774F77F57A54775E7768777277F57A76
:1002C000F57AF57AF57AF57AF57AF57AF57AF57AB6
:1002D000F57AF57AF57AF57AF57AF57AF57AF57AA6
:1002E000F57A3177F57AF57AF57AF57AF57AF57A5D
:1002F000F57AF57AF57AF57AF57AF57AF57AF57A86
:10030000F57AF57AF57A7C77867790779A77F57A29
:10031000F57AF57AF57AF57AF57AF57AF57A277736
:100320002A783E785278F77AF77AB2778E74F77A2D
:1003300066787A788E78D1782777B678F77AC67724
:10034000F77AA278DA77A477F77AF77AF77AEE77FE
:1003500002781678827A437A477A4F7A2B7A2F7A04
:10036000377A3B7A5B7A6E7A767A7A7A7E7ADA7A3A
:10037000537A2D7841785578F77AF77AB5777D7486
:10038000F77A69787D789178D1781677B978F77AA5
:10039000C977F77AA578DD77A777F77AF77AF77ACA
:1003A000F17705781978C8BDCFBDD6BDDDBDE4BDF8
:1003B000EBBDF2BDF9BDEAC048C050C058C060C036
:1003C00068C070C078C080C088C090C098C0A0C00D
:1003D000A8C0B0C0D0C0D0C0D0C0D0C0D0C0D0C0E5
:1003E000D0C0D0C0D0C0D0C0D0C0D0C0D0C0D0C08D
:1003F000D0C0D0C0D0C0D0C0D0C0D0C0D0C0D0C07D
:10040000D0C0D0C0D0C0D0C0D0C0D0C0D0C0D0C06C
:10041000D0C0D0C0D0C0D0C0D0C0B8C0C0C0D0C084
:10042000D0C0D0C0D0C0D0C0D0C0D0C0D0C0D0C04C
:10043000D0C0D0C0D0C0D0C0D0C0D0C0D0C0D0C03C
:10044000D0C0D0C0D0C0D0C0D0C0D0C0D0C0D0C02C
:10045000D0C0D0C0D0C0D0C0D0C0D0C0D0C0D0C01C
:10046000D0C0D0C0D0C0D0C0D0C0D0C0D0C0D0C00C
:10047000D0C0D0C0D0C0D0C0D0C0D0C0C8C0084A42
:10048000D73B3BCE016E84BCBFFDC12F3D6C7431A8
:100490009ABD56833DDA3D00C77F11BED9E4BB4CFF
:1004A0003E916BAAAABE000000803F05A84CCDB2C9
:1004B000D44EB93836A9020C50B9918688083CA6AA
:1004C000AAAA2ABE000000803F07634236B79BD825
:1004D000A71A39685618AEBAAB558C1D3CB7CC5725
:1004E00063BD6DEDFD753EF6177231BF00000080F3
:1004F0003F08000000BE922449123EABAAAA2ABEC1
:10050000CDCCCC4C3E00000080BEABAAAAAA3E00D7
:10051000000000BF000000803F0000000000084114
:1005200078D3BB4387D1133D190E3CC3BD4282AD86
:100530002B3E68EC8276BED98FE1A93E4C80EFFF5E
:10054000BE01C4FF7F3F0000000000000C94A7AE76
:100550000C943ACA0C9436BC0C94D3CA0C94FA5A34
:100560000C9419670C94B77C0C94A7770C94367B89
:100570000C94AF7C0C94DA710C9491780C94D3C4E5
:100580000C94AE5E0C94F5CA0C94A65F0C949CBDC2
:100590000C94A8620C9493670C94865E0C949A77E2
:1005A0000C94005B0C948A5E0C94BF740C94EDAABE
:1005B0000C9434C00C9466780C945E770C94ECB177
:1005C0000C94335F0C942D780C942A6B0C9430C0EF
:1005D0000C9491610C948BB00C9416780C94B46BC1
:1005E0000C94DC660C943A4C0C941C720C940C5BCE
:1005F0000C943F760C94815D0C9481620C943AB01B
:100600000C94BA5E0C94765B0C94E1AE0C9410C022
:100610000C94AC740C942B7A0C94646C0C946A71EA
:100620000C94E3BC0C944F770C94F1770C9469789C
:100630000C9464CB0C94D8620C941DBD0C941E6178
:100640000C94B5770C94CC5D0C94ABAE0C949E5E80
:100650000C946E7A0C94607D0C94DF6B0C94336771
:100660000C94AA5E0C94E0660C94925F0C943E5835
:100670000C94F9BD0C94FDAA0C94E75A0C94285BD9
:100680000C947A7A0C9454770C94537A0C941EBC84
:100690000C94F15E0C948E5F0C94DA770C94A27833
:1006A0000C94CE5E0C94AD5D0C94DA7A0C944F7A77
:1006B0000C94475B0C94A65E0C94DC5B0C94B25DCE
:1006C0000C94B65E0C9468770C948A5F0C9460C0AE
:1006D0000C94765C0C94125B0C946E830C943362D5
:1006E0000C9494BD0C94F45A0C9497B00C94F57A35
:1006F0000C9455780C94BE5E0C944FB00C9468C06A
:100700000C94467B0C9448C00C94C2750C94C8C0E1
:100710000C948A660C947E5F0C9467670C94B7C443
:100720000C94525B0C947A780C94D25E0C94315BEE
:100730000C944F710C94CA5E0C948E780C94444CBB
:100740000C94377A0C94C6770C94265E0C94A45BB8
:100750000C947BD10C94B37C0C94B9760C94DDAAE8
:100760000C94E7AE0C94B9780C9488C00C94C8BD76
:100770000C942B760C94D3740C94A76A0C94036895
:100780000C940C530C94F5C90C94F77A0C94EAC0B1
:100790000C94A9AE0C9476830C9431770C94B277B8
:1007A0000C94F1740C9480C00C9427660C94EBBDEF
:1007B0000C943D5C0C94F2BD0C94706B0C94EE7731
:1007C0000C94357D0C94CD5F0C94E15D0C9450C07D
:1007D0000C94C9770C94D4660C94477A0C943B7AA9
:1007E0000C9413CF0C94925E0C94B96E0C949A6B8B
:1007F0000C9458CD0C94B6780C94D35D0C94D9AA73
:100800000C948B7D0C9441780C9498740C948E7499
:100810000C94965F0C9498C00C94CC750C947566EF
:100820000C946F640C94DA5D0C9416770C944E4C17
:100830000C9402770C94C0C00C94E5AA0C94C8BC2C
:100840000C9493B00C94CFBD0C94E3AE0C94DD7477
:100850000C94A75C0C94F67C0C94FF820C947D782D
:100860000C94B3750C9446610C9474BD0C94AE5FFB
:100870000C940E620C9490BD0C94F5AA0C9498BD47
:100880000C9458620C947C770C9445770C94B16E60
:100890000C94AA5F0C946A610C9416C00C94477572
:1008A0000C942ACE0C949A5E0C94E7740C94CB674B
:1008B0000C948D4C0C94F0C40C9427770C947C769B
:1008C0000C943B770C94A8C00C94C7950C94D875E5
:1008D0000C9470C00C942A780C94437A0C94F46BAA
:1008E0000C94E85D0C9445BD0C9422610C945278F4
:1008F0000C9416D00C948B7C0C94E9610C9481BD03
:100900000C9452CB0C94B0C00C943E780C94DD77D0
:100910000C9433D20C9405780C9485700C9478BDAB
:100920000C94C1610C948D5B0C94075E0C94D6BD45
:100930000C94C8600C94A0C00C94F1AA0C942F7A6B
:100940000C9487B00C94B8C00C94825E0C943576ED
:100950000C94B25F0C94E1AA0C94BA5C0C94E4BDC4
:100960000C948E5E0C94B65F0C94B4BC0C94E4664C
:100970000C9481D00C94AB7C0C94A25E0C947CBD46
:100980000C94C3610C94C25E0C946BB00C9486778B
:100990000C9472830C944D850C941D5B0C943C5B01
:1009A0000C947E7A0C94EE750C94A2740C94CE7513
:1009B0000C94C9740C94A5780C949A5F0C94A48739
:1009C0000C9458C00C94D8660C949FC40C94B774C3
:1009D0000C94065B0C94E9AA0C9478C00C94B25E5B
:1009E0000C9472770C9460CA0C942B7C0C94D17884
:1009F0000C948FB00C94774F0C94DDBD0C94BD74A7
:100A00000C9402780C9490C00C9494C50C944D678F
:100A10000C9475CF0C94867C0C9486750C94A25F14
:100A20000C94767A0C947A5F0C94145F0C94965E16
:100A30000C94295D0C94C65E0C94825F0C94A47790
:100A40000C94B8750C949E5F0C94827A0C94105F91
:100A50000C947D740C94CEB10C9419780C94F9AA72
:100A60000C945D5B0C942ABC0C94B1AB0C94865F27
:100A70000C94765F0C94BB7C0C94D0C00C94C25F39
:100A80000C94135C0C949EC40C94A6CE0C9490779A
:100A90000C940C770C94E3750C945B7A5B257325AE
:100AA000735D20257320257320706F736974696FDF
:100AB0006E2531382E336625730A005B2573257346
:100AC0005D202573202573206F666673657425325B
:100AD000302E336625730A005B257325735D202550
:100AE00073207A65726F206261636B6F6666253171
:100AF000392E336625730A005B257325735D202527
:100B000073206C61746368206261636B6F66662535
:100B100031382E336625730A005B257325735D20FB
:100B20002573206C617463682076656C6F636974EB
:100B3000792531332E306625732F6D696E0A005B7F
:100B4000257325735D2025732073656172636820AA
:100B500076656C6F636974792531322E3066257342
:100B60002F6D696E0A005B257325735D2025732048
:100B7000737769746368206D617825313764205B11
:100B8000303D6F66662C313D686F6D696E672C3243
:100B90003D6C696D69742C333D6C696D69742B68AB
:100BA0006F6D696E675D0A005B257325735D202597
:100BB0007320737769746368206D696E25313764BB
:100BC000205B303D6F66662C313D686F6D696E67E6
:100BD0002C323D6C696D69742C333D6C696D6974A0
:100BE0002B686F6D696E675D0A005B257325735D09
:100BF000202573207261646975732076616C756558
:100C00002532302E346625730A005B257325735D0B
:100C1000202573206A756E6374696F6E2064657633
:100C2000696174696F6E2531342E3466257320280E
:100C30006C61726765722069732066617374657296
:100C4000290A005B257325735D202573206A657270
:100C50006B20686F6D696E672531362E306625739F
:100C60002F6D696E5E33202A2031206D696C6C69AE
:100C70006F6E0A005B257325735D202573206A65FE
:100C8000726B206D6178696D756D2531352E30661A
:100C900025732F6D696E5E33202A2031206D696CBB
:100CA0006C696F6E0A005B257325735D20257320C8
:100CB00074726176656C206D696E696D756D253134
:100CC000372E336625730A005B257325735D202557
:100CD000732074726176656C206D6178696D756DD5
:100CE0002531372E336625730A005B257325735D26
:100CF0002025732076656C6F63697479206D617847
:100D0000696D756D2531312E306625732F6D696ED5
:100D10000A005B257325735D202573206665656475
:100D200072617465206D6178696D756D2531312E44
:100D3000306625732F6D696E0A005B257325735D20
:100D40002025732061786973206D6F6465253138C3
:100D5000642025730A005B6D615D20206D696E2043
:100D6000617263207365676D656E742531382E334B
:100D70006625730A005B736C5D2020736F667420B8
:100D80006C696D697420656E61626C6525313264D1
:100D90000A005B63745D202063686F7264616C207D
:100DA000746F6C6572616E63652531372E3466250C
:100DB000730A005B6A615D20206A756E6374696FF7
:100DC0006E20616363656C65726174696F6E25384E
:100DD0002E306625730A005B6764695D2064656672
:100DE00061756C742067636F6465206469737461F6
:100DF0006E6365206D6F6465253264205B303D470E
:100E000039302C313D4739315D0A005B6770615DD7
:100E10002064656661756C742067636F646520701B
:100E200061746820636F6E74726F6C253364205B2D
:100E3000303D4736312C313D4736312E312C323D55
:100E40004736345D0A005B67636F5D2064656661E9
:100E5000756C742067636F646520636F6F726420C4
:100E600073797374656D253364205B312D362028CA
:100E70004735342D473539295D0A005B67756E5D4E
:100E80002064656661756C742067636F64652075A6
:100E90006E697473206D6F6465253564205B303D29
:100EA0004732302C313D4732315D0A005B67706C50
:100EB0005D2064656661756C742067636F6465208E
:100EC000706C616E6525313064205B303D47313791
:100ED0002C313D4731382C323D4731395D0A0025F0
:100EE0006320776F726B206F66667365743A253185
:100EF000322E336625730A002563206D61636869AD
:100F00006E6520706F736E3A2531312E336625730E
:100F10000A00256320706F736974696F6E3A25311A
:100F2000352E336625730A00546F6F6C206E756D15
:100F30006265722020202020202020202025640AA5
:100F400000466565642072617465206D6F64653A62
:100F500020202020202025730A0044697374616ECC
:100F60006365206D6F64653A2020202020202025B5
:100F7000730A0050617468204D6F64653A20202028
:100F8000202020202020202025730A00506C616E34
:100F9000653A2020202020202020202020202020F2
:100FA0002025730A004D6F74696F6E206D6F646544
:100FB0003A20202020202020202025730A00436F83
:100FC0006F7264696E6174652073797374656D3ACC
:100FD00020202025730A00556E6974733A20202062
:100FE00020202020202020202020202025730A00DF
:100FF000486F6D696E672073746174653A202020B4
:10100000202020202025730A0046656564686F6CE7
:10101000642073746174653A202020202020257399
:101020000A004D6F74696F6E2073746174653A20A5
:101030002020202020202025730A004379636C653E
:101040002073746174653A20202020202020202005
:1010500025730A00526177206D616368696E6520AF
:1010600073746174653A20202025730A004D616312
:1010700068696E652073746174653A2020202020B1
:10108000202025730A004C696E65206E756D6265BF
:10109000723A2531302E30660A004665656420724A
:1010A0006174653A2531362E336625732F6D696E6E
:1010B0000A0056656C6F636974793A2531372E33AF
:1010C0006625732F6D696E0A002011EF10CF10474F
:1010D0003935202D20756E6974732D7065722D72EF
:1010E00065766F6C7574696F6E206D6F646500470F
:1010F0003934202D20756E6974732D7065722D6DD5
:10110000696E757465206D6F64652028692E652E83
:10111000206665656472617465206D6F6465290081
:10112000473933202D20696E7665727365207469A6
:101130006D65206D6F6465005C113C11473931208D
:101140002D20696E6372656D656E74616C206469D3
:101150007374616E6365206D6F646500473930207C
:101160002D206162736F6C7574652064697374619E
:101170006E6365206D6F646500AD1195117F114739
:101180003634202D20636F6E74696E756F75732011
:101190006D6F6465004736312E31202D20657861F2
:1011A00063742073746F70206D6F6465004736310F
:1011B000202D2065786163742070617468206D6FE4
:1011C000646500E711D811C911473139202D205924
:1011D0005A20706C616E6500473138202D20585AB6
:1011E00020706C616E6500473137202D20585920E2
:1011F000706C616E65007312611248122712001242
:10120000473830202D2063616E63656C206D6F74EC
:10121000696F6E206D6F646520286E6F6E6520614A
:1012200063746976652900473320202D20636F752C
:101230006E74657220636C6F636B77697365206190
:101240007263206665656400473220202D20636C40
:101250006F636B776973652061726320666565648F
:1012600000473120202D206C696E65617220666513
:10127000656400473020202D206C696E6561722006
:10128000747261766572736520287365656B2900D9
:101290003A1320130613EC12D212B8129E124735DD
:1012A00039202D20636F6F7264696E6174652073DD
:1012B000797374656D203600473538202D20636FB3
:1012C0006F7264696E6174652073797374656D20E3
:1012D0003500473537202D20636F6F7264696E616A
:1012E00074652073797374656D203400473536203A
:1012F0002D20636F6F7264696E61746520737973FA
:1013000074656D203300473535202D20636F6F7273
:1013100064696E6174652073797374656D20320041
:10132000473534202D20636F6F7264696E61746578
:101330002073797374656D203100473533202D207B
:101340006D616368696E6520636F6F7264696E6159
:1013500074652073797374656D006D136713601382
:10136000486F6D696E6700486F6D6564004E6F74FD
:1013700020486F6D656400A1139C13971391138C23
:10138000138313456E6420486F6C6400486F6C646F
:1013900000446563656C00506C616E0053796E6348
:1013A000004F666600B413B013AB13486F6C640053
:1013B00052756E0053746F7000DE13D413CE13C7D2
:1013C00013C3134A6F6700486F6D696E67005072F0
:1013D0006F6265004D616368696E696E67004F6694
:1013E000660014140E1408140314FF13F913F013F9
:1013F00053687574646F776E004379636C6500455C
:101400006E640053746F7000416C61726D005265C0
:1014100061647900496E697469616C697A696E67A3
:1014200000771471146B14661462145E145914530B
:10143000144D1446144214391453687574646F774C
:101440006E004A6F6700486F6D696E67004379638D
:101450006C650050726F626500486F6C6400527575
:101460006E00456E640053746F7000416C61726D64
:1014700000526561647900496E697469616C697ACA
:10148000696E67009E148814473231202D206D69E3
:101490006C6C696D65746572206D6F6465004732B0
:1014A00030202D20696E63686573206D6F64650060
:1014B000D814CD14C114B8145B7261646975735D7E
:1014C000005B696E686962697465645D005B737472
:1014D000616E646172645D005B64697361626C6516
:1014E000645D00F214EE14E9142064656700206D59
:1014F0006D0020696E002A2A2A204E4F5449434528
:10150000202A2A2A20526573657474696E672062E6
:10151000617564207261746520746F202573005BAF
:101520006E65745D206E6574776F726B206D6F648D
:101530006525313764205B303D6D61737465725D84
:101540000A005B626175645D2055534220626175DB
:1015500064207261746525313564205B313D393614
:1015600030302C323D31393230302C333D33383449
:1015700030302C343D35373630302C353D31313537
:101580003230302C363D3233303430305D0A005B3F
:1015900065785D2020656E61626C6520666C6F7792
:1015A00020636F6E74726F6C25313064205B303D48
:1015B0006F66662C313D584F4E2F584F46462C20B3
:1015C000323D5254532F4354535D0A005B65655DB1
:1015D0002020656E61626C65206563686F25313817
:1015E00064205B303D6F66662C313D6F6E5D0A0096
:1015F0005B65635D2020657870616E64204C4620D9
:10160000746F2043524C46206F6E20545825366428
:10161000205B303D6F66662C313D6F6E5D0A005277
:10162000164D16471641163B1634162D163233301A
:1016300034303000313135323030003537363030EB
:101640000033383430300031393230300039363000
:1016500030003000737973006662000000000702FA
:10166000AB7C9161C1612B349A19DC4373797300AF
:101670006676000000000703AF7C9161C1612F34E2
:10168000EC51783F73797300687000000000070028
:10169000B37C9161A86233340000803F737973009A
:1016A0006876000000000700B77C91618B7C3734BE
:1016B00000000041737973006964000000000400B9
:1016C000BB7C2B7CC16127340000000000000000BF
:1016D0006E00000000000100825E765B5862112CF3
:1016E00000000000000000006C696E650000010051
:1016F000825E8D5B5862112C00000000000000002B
:1017000076656C0000000002E85DA45BC1612734CF
:101710000000000000000000666565640000000233
:10172000075EDC5BC16127340000000000000000A0
:101730007374617400000000865EE75AC16127344B
:1017400000000000000000006D61637300000000F5
:101750008A5EF45AC16127340000000000000000D6
:1017600063796373000000008E5EFA5AC16127340A
:1017700000000000000000006D6F747300000000A6
:10178000925E005BC1612734000000000000000091
:10179000686F6C6400000000965E065BC1612734D0
:1017A0000000000000000000756E69740000000079
:1017B0009E5E125BC1612734000000000000000043
:1017C000636F6F7200000000A25E1D5BC161273471
:1017D00000000000000000006D6F6D6F0000000051
:1017E000A65E285BC16127340000000000000000F5
:1017F000706C616E00000000AA5E315BC16127342D
:10180000000000000000000070617468000000002B
:10181000AE5E3C5BC16127340000000000000000A8
:101820006469737400000000B25E475BC1612734D5
:10183000000000000000000066726D6F00000000F4
:10184000B65E525BC161273400000000000000005A
:10185000746F6F6C00000000BA5E5D5BC16127347D
:10186000000000006D706F006D706F780000000365
:10187000C25F3D5CC1612734000000006D706F00E5
:101880006D706F7900000003C25F3D5CC161273459
:10189000000000006D706F006D706F7A0000000333
:1018A000C25F3D5CC1612734000000006D706F00B5
:1018B0006D706F6100000003C25F3D5CC161273441
:1018C000000000006D706F006D706F62000000031B
:1018D000C25F3D5CC1612734000000006D706F0085
:1018E0006D706F6300000003C25F3D5CC16127340F
:1018F00000000000706F7300706F737800000003C9
:10190000B65F135CC161273400000000706F730084
:10191000706F737900000003B65F135CC1612734F8
:1019200000000000706F7300706F737A0000000396
:10193000B65F135CC161273400000000706F730054
:10194000706F736100000003B65F135CC1612734E0
:1019500000000000706F7300706F7362000000037E
:10196000B65F135CC161273400000000706F730024
:10197000706F736300000003B65F135CC1612734AE
:10198000000000006F6673006F667378000000034C
:10199000CD5F765CC1612734000000006F66730084
:1019A0006F66737900000003CD5F765CC1612734F8
:1019B000000000006F6673006F66737A000000031A
:1019C000CD5F765CC1612734000000006F66730054
:1019D0006F66736100000003CD5F765CC1612734E0
:1019E000000000006F6673006F6673620000000302
:1019F000CD5F765CC1612734000000006F66730024
:101A00006F66736300000003CD5F765CC1612734AD
:101A100000000000686F6D00686F6D6500000000D9
:101A20009A5E0C5BB25D273400000000686F6D00A9
:101A3000686F6D7800000000B65F2261C161E62B1F
:101A400000000000686F6D00686F6D790000000095
:101A5000B65F2261C161E72B00000000686F6D0076
:101A6000686F6D7A00000000B65F2261C161E82BEB
:101A700000000000686F6D00686F6D61000000007D
:101A8000B65F2261C161E92B00000000686F6D0044
:101A9000686F6D6200000000B65F2261C161EA2BD1
:101AA00000000000686F6D00686F6D63000000004B
:101AB000B65F2261C161EB2B000000007072620012
:101AC00070726265000000009EC42261C161EC2B4F
:101AD0000000000070726200707262780000000303
:101AE0009EC49161C161ED2B000000007072620024
:101AF00070726279000000039EC49161C161F12B94
:101B000000000000707262007072627A00000003D0
:101B10009EC49161C161F52B0000000070726200EB
:101B200070726261000000039EC49161C161F92B73
:101B300000000000707262007072626200000003B8
:101B40009EC49161C161FD2B0000000070726200B3
:101B500070726263000000039EC49161C161012C38
:101B6000000000006A6F67006A6F6778000000007D
:101B70009EC41E61CC5D0B2C000000006A6F6700E4
:101B80006A6F6779000000009EC41E61D35D0B2C54
:101B9000000000006A6F67006A6F677A000000004B
:101BA0009EC41E61DA5D0B2C000000006A6F6700A6
:101BB0006A6F6761000000009EC41E61E15D0B2C2E
:101BC0000000000070777200707772310000000032
:101BD0009CBDC8BCC1612734000000007077720052
:101BE00070777232000000009CBDC8BCC161273410
:101BF0000000000070777200707772330000000000
:101C00009CBDC8BCC1612734000000007077720021
:101C100070777234000000009CBDC8BCC1612734DD
:101C200000000000000000007372000000000000CF
:101C3000E1AEA7AEA9AE273400000000000000000E
:101C4000717200000000000087B03AB0C161273413
:101C500000000000000000007169000000000000AA
:101C60008BB04FB0C16127340000000000000000BD
:101C7000716F0000000000008FB06BB0C1612734AD
:101C8000000000000000000065720000000000007D
:101C90009EC4B1ABC1612734000000000000000009
:101CA00071660000000000009EC41E61AD5D273417
:101CB000000000000000000072780000000000003A
:101CC000D3C47566C1612734000000000000000025
:101CD0006D736700000000009FC41E61C16127345E
:101CE0000000000000000000636C656172000000ED
:101CF0009EC40C530C532734000000000000000069
:101D000074657374000000009EC4357D34C02734B0
:101D10000000000000000000646566610000000033
:101D20009EC4607DC86027340000000000000000F1
:101D3000626F6F74000000009EC48B7D867C273428
:101D4000000000000000000068656C7000000000EA
:101D50009EC4F67CC1612734000000000000000032
:101D600068000000000000009EC4F67CC1612734BA
:101D70000000000031000000316D61000000030030
:101D800078BD2261C361AA53000000003100000049
:101D900031736100000003037CBD91611EBCB5532B
:101DA0006666E63F310000003174720000000B04EB
:101DB00081BD91612ABCB9530000A03F31000000F1
:101DC000316D69000000030090BD226136BCAB5349
:101DD000000000413100000031706F00000003007E
:101DE00094BD2261E961AF530000000031000000A2
:101DF00031706D000000030098BD2261B4BCB05387
:101E00000000004032000000326D6100000003005D
:101E100078BD2261C361C9530000803F32000000D9
:101E200032736100000003037CBD91611EBCD4537A
:101E30006666E63F320000003274720000000B0458
:101E400081BD91612ABCD8530000A03F3200000040
:101E5000326D69000000030090BD226136BCCA5398
:101E6000000000413200000032706F0000000300EB
:101E700094BD2261E961CE530000000032000000F1
:101E800032706D000000030098BD2261B4BCCF53D6
:101E90000000004033000000336D610000000300CB
:101EA00078BD2261C361E8530000004033000000A8
:101EB00033736100000003037CBD91611EBCF353CA
:101EC0006666E63F330000003374720000000B04C6
:101ED00081BD91612ABCF7530000A03F3300000090
:101EE000336D69000000030090BD226136BCE953E8
:101EF000000000413300000033706F000000030059
:101F000094BD2261E961ED53000000003300000040
:101F100033706D000000030098BD2261B4BCEE5325
:101F20000000004034000000346D61000000030038
:101F300078BD2261C36107540000404034000000B6
:101F400034736100000003037CBD91611EBC125418
:101F50006666E63F340000003474720000000B0433
:101F600081BD91612ABC16540000B44334000000C6
:101F7000346D69000000030090BD226136BC085436
:101F8000000000413400000034706F0000000300C6
:101F900094BD2261E9610C5400000000340000008F
:101FA00034706D000000030098BD2261B4BC0D5474
:101FB000000000407800000078616D000000030020
:101FC000335FA75CBA5CA22A0000803F7800000063
:101FD00078766D0000000B007A5F91618A66A72A0F
:101FE00000004844780000007866720000000B0092
:101FF000765F91618A66A32A000048447800000059
:1020000078746E0000000B03825F91618A66AF2ACC
:10201000000000007800000078746D0000000B03E1
:102020007E5F91618A66AB2A00001643780000004B
:10203000786A6D0000000B00865F9161295DB32A0C
:102040000000A04178000000786A680000000B00E2
:102050008A5F9161815DB72A00002042780000000C
:10206000786A640000000B048E5F91618A66BF2A63
:10207000CDCC4C3D7800000078736E00000003006A
:10208000965F226116C0C6290000803F78000000DC
:1020900078737800000003009A5F226116C0C72998
:1020A00000000000780000007873760000000B004C
:1020B0009E5F91618A66C72A0000FA43780000009B
:1020C000786C760000000B00A25F91618A66CB2AD3
:1020D0000000C84278000000786C620000000B032A
:1020E000A65F91618A66CF2A0000A04078000000B8
:1020F000787A620000000B03AA5F91618A66D32A96
:102100000000803F7900000079616D00000003004D
:10211000335FA75CBA5CD72A0000803F79000000DB
:1021200079766D0000000B007A5F91618A66DC2A87
:1021300000004844790000007966720000000B003E
:10214000765F91618A66D82A0000484479000000D1
:1021500079746E0000000B03825F91618A66E42A45
:10216000000000007900000079746D0000000B038E
:102170007E5F91618A66E02A0000164379000000C4
:10218000796A6D0000000B00865F9161295DE82A85
:102190000000A04179000000796A680000000B008F
:1021A0008A5F9161815DEC2A000020427900000085
:1021B000796A640000000B048E5F91618A66F42ADC
:1021C000CDCC4C3D7900000079736E000000030017
:1021D000965F226116C0C8290000803F7900000088
:1021E00079737800000003009A5F226116C0C92944
:1021F00000000000790000007973760000000B00F9
:102200009E5F91618A66FC2A0000FA437900000013
:10221000796C760000000B00A25F91618A66002B4A
:102220000000C84279000000796C620000000B03D6
:10223000A65F91618A66042B0000A040790000002F
:10224000797A620000000B03AA5F91618A66082B0D
:102250000000803F7A0000007A616D0000000300FA
:10226000335FA75CBA5C0C2B0000803F7A00000053
:102270007A766D0000000B007A5F91618A66112BFF
:10228000000048447A0000007A66720000000B00EB
:10229000765F91618A660D2B000048447A00000049
:1022A0007A746E0000000B03825F91618A66192BBD
:1022B000000000007A0000007A746D0000000B033B
:1022C0007E5F91618A66152B000096427A000000BD
:1022D0007A6A6D0000000B00865F9161295D1D2BFD
:1022E0000000A0417A0000007A6A680000000B003C
:1022F0008A5F9161815D212B000020427A000000FD
:102300007A6A640000000B048E5F91618A66292B53
:10231000CDCC4C3D7A0000007A736E0000000300C3
:10232000965F226116C0CA29000000007A000000F2
:102330007A737800000003009A5F226116C0CB29EF
:102340000000803F7A0000007A73760000000B00E6
:102350009E5F91618A66312B0000C8437A000000BD
:102360007A6C760000000B00A25F91618A66352BC3
:102370000000C8427A0000007A6C620000000B0383
:10238000A65F91618A66392B0000A0407A000000A8
:102390007A7A620000000B03AA5F91618A663D2B86
:1023A0000000803F6100000061616D0000000300DB
:1023B000335FA75CBA5C412B000040406100000025
:1023C00061766D00000003007A5F9161A862462B80
:1023D00000006148610000006166720000000300B7
:1023E000765F9161A862422B0000614861000000A5
:1023F00061746E0000000303825F91618A664E2B58
:10240000000080BF6100000061746D0000000303E4
:102410007E5F9161A8624A2B000080BF61000000CE
:10242000616A6D0000000300865F9161295D522B97
:102430000000B44561000000616A6800000003000C
:102440008A5F9161815D562B000034466100000077
:10245000616A6400000003048E5F9161A8625E2BD4
:10246000CDCC4C3D610000006172610000000B03A7
:10247000925F9161A862622BD5B74B3E610000006C
:1024800061736E0000000300965F226116C0CC29C4
:102490000000803F610000006173780000000300CD
:1024A0009A5F226116C0CD29000000006100000083
:1024B00061737600000003009E5F9161A862662B45
:1024C0000000164461000000616C7600000003000B
:1024D000A25F9161A8626A2B0000C84261000000FF
:1024E000616C620000000303A65F9161A8626E2B1D
:1024F0000000A04061000000617A62000000030358
:10250000AA5F9161A862722B000000406200000087
:1025100062616D0000000300335FA75CBA5C762B3C
:10252000000000006200000062766D000000030001
:102530007A5F9161A8627B2B000061456200000018
:102540006266720000000300765F9161A862772BDB
:10255000000061456200000062746E000000030329
:10256000825F91618A66832B000080BF6200000059
:1025700062746D00000003037E5F9161A8627F2B8F
:10258000000080BF62000000626A6D00000003006E
:10259000865F9161295D872B0000A04162000000E9
:1025A000626A6400000003008E5F9161A862932B51
:1025B000CDCC4C3D620000006272610000000B0354
:1025C000925F9161A862972B0000803F630000003A
:1025D00063616D0000000300335FA75CBA5CAB2B46
:1025E000000000006300000063766D00000003003F
:1025F0007A5F9161A862B02B000061456300000022
:102600006366720000000300765F9161A862AC2BE4
:10261000000061456300000063746E000000030366
:10262000825F91618A66B82B000080BF6300000062
:1026300063746D00000003037E5F9161A862B42B98
:10264000000080BF63000000636A6D0000000300AB
:10265000865F9161295DBC2B0000A04163000000F2
:10266000636A6400000003008E5F9161A862C82B5A
:10267000CDCC4C3D630000006372610000000B0391
:10268000925F9161A862CC2B0000803F7031000006
:102690007031667271000300D9AA9161A8628652F6
:1026A0000000C84270310000703163736C00030099
:1026B000DDAA9161A8628A5200007A44703100005C
:1026C0007031637368000300E1AA9161A8628E52C1
:1026D0000000FA4470310000703163706C00030335
:1026E000E5AA9161A86292520000003E703100009C
:1026F0007031637068000303E9AA9161A862965281
:10270000CDCC4C3E70310000703177736C0003000B
:10271000EDAA9161A8629A5200007A4470310000DB
:102720007031777368000300F1AA9161A8629E522C
:102730000000FA4470310000703177706C000303C0
:10274000F5AA9161A862A2520000003E703100001B
:102750007031777068000303F9AA9161A862A652EC
:10276000CDCC4C3E703100007031706F66000303B9
:10277000FDAA9161A862AA52CDCCCC3D6735340048
:102780006735347800000B03AE5F91618A66122AC8
:1027900000000000673534006735347900000B0312
:1027A000AE5F91618A66162A00000000673534002A
:1027B0006735347A00000B03AE5F91618A661A2A8E
:1027C00000000000673534006735346100000B03FA
:1027D000AE5F91618A661E2A0000000067353400F2
:1027E0006735346200000B03AE5F91618A66222A6E
:1027F00000000000673534006735346300000B03C8
:10280000AE5F91618A66262A0000000067353500B8
:102810006735357800000B03AE5F91618A662A2A1E
:1028200000009642673535006735357900000B03A7
:10283000AE5F91618A662E2A0000964267353500A8
:102840006735357A00000B03AE5F91618A66322AE4
:1028500000000000673535006735356100000B0367
:10286000AE5F91618A66362A000000006735350048
:102870006735356200000B03AE5F91618A663A2AC4
:1028800000000000673535006735356300000B0335
:10289000AE5F91618A663E2A00000000673536000F
:1028A0006735367800000B03AE5F91618A66422A75
:1028B00000000000673536006735367900000B03ED
:1028C000AE5F91618A66462A0000000067353600D7
:1028D0006735367A00000B03AE5F91618A664A2A3B
:1028E00000000000673536006735366100000B03D5
:1028F000AE5F91618A664E2A00000000673536009F
:102900006735366200000B03AE5F91618A66522A1A
:1029100000000000673536006735366300000B03A2
:10292000AE5F91618A66562A000000006735370065
:102930006735377800000B03AE5F91618A665A2ACB
:1029400000000000673537006735377900000B035A
:10295000AE5F91618A665E2A00000000673537002D
:102960006735377A00000B03AE5F91618A66622A91
:1029700000000000673537006735376100000B0342
:10298000AE5F91618A66662A0000000067353700F5
:102990006735376200000B03AE5F91618A666A2A71
:1029A00000000000673537006735376300000B0310
:1029B000AE5F91618A666E2A0000000067353800BC
:1029C0006735387800000B03AE5F91618A66722A22
:1029D00000000000673538006735387900000B03C8
:1029E000AE5F91618A66762A000000006735380084
:1029F0006735387A00000B03AE5F91618A667A2AE8
:102A000000000000673538006735386100000B03AF
:102A1000AE5F91618A667E2A00000000673538004B
:102A20006735386200000B03AE5F91618A66822AC7
:102A300000000000673538006735386300000B037D
:102A4000AE5F91618A66862A000000006735390012
:102A50006735397800000B03AE5F91618A668A2A78
:102A600000000000673539006735397900000B0335
:102A7000AE5F91618A668E2A0000000067353900DA
:102A80006735397A00000B03AE5F91618A66922A3E
:102A900000000000673539006735396100000B031D
:102AA000AE5F91618A66962A0000000067353900A2
:102AB0006735396200000B03AE5F91618A669A2A1E
:102AC00000000000673539006735396300000B03EB
:102AD000AE5F91618A669E2A00000000673932006D
:102AE0006739327800000103AE5F9161C161842CC7
:102AF00000000000673932006739327900000103B5
:102B0000AE5F9161C161882C00000000673932001E
:102B10006739327A00000103AE5F9161C1618C2C8C
:102B2000000000006739320067393261000001039C
:102B3000AE5F9161C161902C0000000067393200E6
:102B40006739326200000103AE5F9161C161942C6C
:102B5000000000006739320067393263000001036A
:102B6000AE5F9161C161982C0000000067323800AF
:102B70006732387800000103B25F9161C1619C2C1B
:102B80000000000067323800673238790000010326
:102B9000B25F9161C161A02C000000006732380073
:102BA0006732387A00000103B25F9161C161A42CE1
:102BB000000000006732380067323861000001030E
:102BC000B25F9161C161A82C00000000673238003B
:102BD0006732386200000103B25F9161C161AC2CC1
:102BE00000000000673238006732386300000103DC
:102BF000B25F9161C161B02C00000000673330000A
:102C00006733307800000103B25F9161C161B42C79
:102C100000000000673330006733307900000103A3
:102C2000B25F9161C161B82C0000000067333000D1
:102C30006733307A00000103B25F9161C161BC2C3F
:102C4000000000006733300067333061000001038B
:102C5000B25F9161C161C02C000000006733300099
:102C60006733306200000103B25F9161C161C42C1F
:102C70000000000067333000673330630000010359
:102C8000B25F9161C161C82C000000006A696400F4
:102C90006A696461000000009EC46A6181624F3409
:102CA000000000006A6964006A6964620000000054
:102CB0009EC46A6181625334000000006A69640046
:102CC0006A696463000000009EC46A6181625734CF
:102CD000000000006A6964006A6964640000000022
:102CE0009EC46A6181625B340000000073797300E6
:102CF0006A61000000000F00D25E91618A66E029DF
:102D00000050C347737973006374000000000F0420
:102D1000F15E91618A66E4290AD7233C73797300D6
:102D2000736C000000000700105F2261C361E82996
:102D30000000000073797300737400000000070046
:102D400030C0226110C0BB290000000073797300FD
:102D50006D7400000000070274BD9161E3BCA653CE
:102D600000000040000000006D6500000000000051
:102D70009FC445BD45BD2734000000000000000091
:102D80006D640000000000009FC41DBD1DBD273400
:102D90000000000073797300656A000000000700FE
:102DA0006E832261E961DC330000803F7379730038
:102DB0006A7600000000070072832261FF82F63706
:102DC00000000040737973006A7300000000070080
:102DD00076832261E961F8370000803F73797300E0
:102DE000747600000000070094C52261E96119555E
:102DF0000000803F737973007176000000000700C7
:102E000093B022613362DF520000000073797300D7
:102E10007376000000000700E7AE22610E62EC52FC
:102E20000000803F737973007369000000000700A1
:102E3000E3AE4661ABAEED520000FA437379730026
:102E40006563000000000700D46622610368DD337B
:102E50000000000073797300656500000000070042
:102E6000D86622619367DE33000000007379730037
:102E70006578000000000700DC662261CB67DF3365
:102E80000000803F73797300626175640000040084
:102E9000E06622612766E0330000A040737973008A
:102EA0006E65740000000700E4662261C3613E3471
:102EB000000000007379730067706C000000070069
:102EC000BE5E22610E62F629000000007379730075
:102ED00067756E0000000700C25E2261E961F72994
:102EE0000000803F7379730067636F000000070084
:102EF000C65E2261C361F5290000803F73797300CB
:102F00006770610000000700CA5E22610E62F82946
:102F100000000040737973006764690000000700D7
:102F2000CE5E2261E961F929000000000000000086
:102F300067630000000000009EC4367B467B273498
:102F400000000000000000006D61000000000B04A4
:102F5000145F91618A66ED29CDCCCC3D0000000064
:102F60006664000000000300B7C42261E961F7371E
:102F700000000000756461007564613000000300AA
:102F8000D3C46A618162E2330000000075646100AD
:102F90007564613100000300D3C46A618162E63365
:102FA0000000000075646100756461320000030078
:102FB000D3C46A618162EA33000000007564610075
:102FC0007564613300000300D3C46A618162EE332B
:102FD0000000000075646200756462300000030048
:102FE000D3C46A618162F23300000000756462003C
:102FF0007564623100000300D3C46A618162F633F4
:103000000000000075646200756462320000030015
:10301000D3C46A618162FA33000000007564620003
:103020007564623300000300D3C46A618162FE33B9
:1030300000000000756463007564633000000300E5
:10304000D3C46A61816202340000000075646300C9
:103050007564633100000300D3C46A618162063481
:1030600000000000756463007564633200000300B3
:10307000D3C46A6181620A34000000007564630091
:103080007564633300000300D3C46A6181620E3447
:103090000000000075646400756464300000030083
:1030A000D3C46A6181621234000000007564640058
:1030B0007564643100000300D3C46A618162163410
:1030C0000000000075646400756464320000030051
:1030D000D3C46A6181621A34000000007564640020
:1030E0007564643300000300D3C46A6181621E34D6
:1030F000000000005F7465005F74657800000002E6
:10310000F0C49161C1614D50000000005F74650022
:103110005F74657900000002F0C49161C161515093
:10312000000000005F7465005F74657A00000002B3
:10313000F0C49161C1615550000000005F746500EA
:103140005F74656100000002F0C49161C161595073
:10315000000000005F7465005F746562000000029B
:10316000F0C49161C1615D50000000005F746500B2
:103170005F74656300000002F0C49161C161615039
:10318000000000005F7472005F747278000000023B
:10319000F0C49161C1617251000000005F7472005F
:1031A0005F74727900000002F0C49161C1617651D0
:1031B000000000005F7472005F74727A0000000209
:1031C000F0C49161C1617A51000000005F74720027
:1031D0005F74726100000002F0C49161C1617E51B0
:1031E000000000005F7472005F74726200000002F1
:1031F000F0C49161C1618251000000005F747200EF
:103200005F74726300000002F0C49161C161865175
:10321000000000005F7473005F74733100000002EF
:10322000F0C49161C161DD50000000005F70730067
:103230005F70733100000002F0C49161C161ED5014
:10324000000000005F6373005F63733100000002E1
:10325000F0C49161C161FD50000000005F65730022
:103260005F65733100000002F0C49161C1610D51CE
:10327000000000005F7873005F7873310000000287
:10328000F0C49161C1614154000000005F666500B7
:103290005F66653100000002F0C49161C1611D519B
:1032A000000000005F7473005F747332000000025E
:1032B000F0C49161C161E150000000005F707300D3
:1032C0005F70733200000002F0C49161C161F1507F
:1032D000000000005F6373005F6373320000000250
:1032E000F0C49161C1610151000000005F6573008D
:1032F0005F65733200000002F0C49161C161115139
:10330000000000005F7873005F78733200000002F5
:10331000F0C49161C1615954000000005F6665000E
:103320005F66653200000002F0C49161C161215105
:10333000000000005F7473005F74733300000002CC
:10334000F0C49161C161E550000000005F7073003E
:103350005F70733300000002F0C49161C161F550E9
:10336000000000005F6373005F63733300000002BE
:10337000F0C49161C1610551000000005F657300F8
:103380005F65733300000002F0C49161C1611551A3
:10339000000000005F7873005F7873330000000264
:1033A000F0C49161C1617154000000005F66650066
:1033B0005F66653300000002F0C49161C161255170
:1033C000000000005F7473005F747334000000023B
:1033D000F0C49161C161E950000000005F707300AA
:1033E0005F70733400000002F0C49161C161F95054
:1033F000000000005F6373005F637334000000022D
:10340000F0C49161C1610951000000005F65730063
:103410005F65733400000002F0C49161C16119510D
:10342000000000005F7873005F78733400000002D2
:10343000F0C49161C1618954000000005F666500BD
:103440005F66653400000002F0C49161C1612951DA
:1034500000000000000000005F64616D00000000DB
:103460009EC4265E265E2734000000000000000097
:1034700073653030000002009EC446615862F85205
:103480000000000000000000736530310000020001
:103490009EC446615862FA5200000000000000001D
:1034A00073653032000002009EC446615862FC52CF
:1034B00000000000000000007365303300000200CF
:1034C0009EC446615862FE520000000000000000E9
:1034D00073653034000002009EC446615862005398
:1034E000000000000000000073653035000002009D
:1034F0009EC44661586202530000000000000000B4
:1035000073653036000002009EC446615862045361
:10351000000000000000000073653037000002006A
:103520009EC446615862065300000000000000007F
:1035300073653038000002009EC44661586208532B
:103540000000000000000000736530390000020038
:103550009EC4466158620A5300000000000000004B
:1035600073653130000002009EC4466158620C53FE
:10357000000000000000000073653131000002000F
:103580009EC4466158620E53000000000000000017
:1035900073653132000002009EC4466158621053C8
:1035A00000000000000000007365313300000200DD
:1035B0009EC44661586212530000000000000000E3
:1035C00073653134000002009EC446615862145392
:1035D00000000000000000007365313500000200AB
:1035E0009EC44661586216530000000000000000AF
:1035F00073653136000002009EC44661586218535C
:103600000000000000000000736531370000020078
:103610009EC4466158621A5300000000000000007A
:1036200073653138000002009EC4466158621C5325
:103630000000000000000000736531390000020046
:103640009EC4466158621E53000000000000000046
:1036500073653230000002009EC4466158622053F8
:10366000000000000000000073653231000002001D
:103670009EC4466158622253000000000000000012
:1036800073653232000002009EC4466158622453C2
:1036900000000000000000007365323300000200EB
:1036A0009EC44661586226530000000000000000DE
:1036B00073653234000002009EC44661586228538C
:1036C00000000000000000007365323500000200B9
:1036D0009EC4466158622A530000000000000000AA
:1036E00073653236000002009EC4466158622C5356
:1036F0000000000000000000736532370000020087
:103700009EC4466158622E53000000000000000075
:1037100073653238000002009EC44661586230531F
:103720000000000000000000736532390000020054
:103730009EC4466158623253000000000000000041
:1037400073797300000000009EC46F64D862273450
:1037500000000000000000007031000000000000C8
:103760009EC46F64D862273400000000000000008F
:1037700031000000000000009EC46F64D86227344E
:103780000000000000000000320000000000000007
:103790009EC46F64D862273400000000000000005F
:1037A00033000000000000009EC46F64D86227341C
:1037B00000000000000000003400000000000000D5
:1037C0009EC46F64D862273400000000000000002F
:1037D00078000000000000009EC46F64D8622734A7
:1037E0000000000000000000790000000000000060
:1037F0009EC46F64D86227340000000000000000FF
:103800007A000000000000009EC46F64D862273474
:103810000000000000000000610000000000000047
:103820009EC46F64D86227340000000000000000CE
:1038300062000000000000009EC46F64D86227345C
:103840000000000000000000630000000000000015
:103850009EC46F64D862273400000000000000009E
:1038600067353400000000009EC46F64D8622734BE
:103870000000000000000000673535000000000077
:103880009EC46F64D862273400000000000000006E
:1038900067353600000000009EC46F64D86227348C
:1038A0000000000000000000673537000000000045
:1038B0009EC46F64D862273400000000000000003E
:1038C00067353800000000009EC46F64D86227345A
:1038D0000000000000000000673539000000000013
:1038E0009EC46F64D862273400000000000000000E
:1038F00067393200000000009EC46F64D86227342C
:1039000000000000000000006732380000000000E6
:103910009EC46F64D86227340000000000000000DD
:1039200067333000000000009EC46F64D862273403
:1039300000000000000000006D706F00000000003B
:103940009EC46F64D86227340000000000000000AD
:10395000706F7300000000009EC46F64D86227344B
:1039600000000000000000006F667300000000000F
:103970009EC46F64D862273400000000000000007D
:10398000686F6D00000000009EC46F64D862273429
:1039900000000000000000007072620000000000E3
:1039A0009EC46F64D862273400000000000000004D
:1039B00070777200000000009EC46F64D8622734E4
:1039C00000000000000000006A6F670000000000B7
:1039D0009EC46F64D862273400000000000000001D
:1039E0006A696400000000009EC46F64D8622734D6
:1039F000000000000000000075646100000000008D
:103A00009EC46F64D86227340000000000000000EC
:103A100075646200000000009EC46F64D8622734A1
:103A2000000000000000000075646300000000005A
:103A30009EC46F64D86227340000000000000000BC
:103A400075646400000000009EC46F64D86227346F
:103A500000000000000000005F746500000000002E
:103A60009EC46F64D862273400000000000000008C
:103A70005F747200000000009EC46F64D862273437
:103A800000000000000000005F74730000000000F0
:103A90009EC46F64D862273400000000000000005C
:103AA0005F707300000000009EC46F64D86227340A
:103AB00000000000000000005F63730000000000D1
:103AC0009EC46F64D862273400000000000000002C
:103AD0005F657300000000009EC46F64D8622734E5
:103AE00000000000000000005F787300000000008C
:103AF0009EC46F64D86227340000000000000000FC
:103B00005F666500000000009EC46F64D8622734C1
:103B100000000000000000006D0000000000000038
:103B20009EC44D67C1612734000000000000000002
:103B300071000000000000009EC43367C16127349B
:103B400000000000000000006F0000000000000006
:103B50009EC41967C1612734000000000000000006
:103B600024000000000000009EC46767C161273484
:103B700000000000456E64206F6620636F6D6D610C
:103B80006E642066696C650A00486F6D696E672017
:103B90006572726F72202D20256320617869732011
:103BA00073657474696E6773206D6973636F6E6695
:103BB0006967757265640050726F62696E6720652F
:103BC00072726F72202D20256320617869732063E3
:103BD000616E6E6F74206D6F766520647572696EAC
:103BE000672070726F62696E67005B69645D202098
:103BF00054696E7947204944253330730A005B6865
:103C0000765D2020686172647761726520766572E6
:103C100073696F6E2531362E32660A005B68705DFF
:103C20002020686172647761726520706C617466CF
:103C30006F726D2531352E32660A005B66765D2027
:103C4000206669726D776172652076657273696F3F
:103C50006E2531362E32660A005B66625D20206674
:103C600069726D77617265206275696C642531389F
:103C70002E32660A00456E7465722024626F6F747E
:103C80003D3120746F20656E746572207468652004
:103C9000626F6F74206C6F616465722E0A000A0A8D
:103CA0000A2323232054696E794720424F4F542022
:103CB0004C4F414445522048656C70202323230A11
:103CC00000456E7465722024646566613D31207420
:103CD0006F207265736574207468652073797374DE
:103CE000656D20746F2074686520666163746F72FF
:103CF000792064656661756C742076616C75657396
:103D00002E0A546869732077696C6C206F7665722F
:103D1000777269746520616E79206368616E67658A
:103D20007320796F752068617665206D6164652EFA
:103D30000A000A0A0A2323232054696E7947205275
:103D40004553544F52452044454641554C54532009
:103D500048656C70202323230A00496E766F6B65DB
:103D60002073656C66207465737420627920656EBB
:103D7000746572696E672024746573743D4E207794
:103D800068657265204E206973206F6E65206F66CE
:103D90003A0A202024746573743D312020736D6FBE
:103DA0006B6520746573740A202024746573743DF8
:103DB000322020686F6D696E6720746573742020EF
:103DC0002028796F75206D75737420747269702066
:103DD000686F6D696E6720737769746368657329AE
:103DE0000A202024746573743D332020737175613B
:103DF00072652074657374202020286120736572B9
:103E0000696573206F662073717561726573290A25
:103E1000202024746573743D342020617263207403
:103E200065737420202020202028736F6D65206C1E
:103E30006172676520636972636C6573290A20206B
:103E400024746573743D3520206477656C6C207430
:103E500065737420202020286D6F76657320737041
:103E6000616365642062792031207365636F6E64DD
:103E7000206477656C6C73290A2020247465737440
:103E80003D36202066656564686F6C6420746573D8
:103E9000742028656E746572202120616E64207E16
:103EA00020746F20686F6C6420616E64207265738B
:103EB000746172742C2072657370656374697665C1
:103EC0006C79290A202024746573743D3720204DB5
:103ED00020636F64657320746573742020284D20FF
:103EE000636F64657320696E7465726D696E676C6B
:103EF00065642077697468206D6F766573290A2080
:103F00002024746573743D3820204A534F4E20742A
:103F10006573742020202020286D6F74696F6E20D7
:103F2000746573742072756E207573696E67204AAC
:103F3000534F4E20636F6D6D616E6473290A2020AC
:103F400024746573743D392020696E7665727365DB
:103F50002074696D6520746573740A20202474656B
:103F600073743D313020726F74617279206D6F749B
:103F7000696F6E20746573740A20202474657374ED
:103F80003D313120736D616C6C206D6F76657320EF
:103F9000746573740A202024746573743D31322073
:103FA000736C6F77206D6F76657320746573740A18
:103FB000202024746573743D313320636F6F726405
:103FC000696E6174652073797374656D206F6666C0
:103FD000736574207465737420284739322C204728
:103FE00035342D473539290A0A54657374732061B5
:103FF0007373756D6520612063656E7465726564A9
:10400000205859206F726967696E20616E64206163
:1040100074206C656173742038306D6D20636C653D
:104020006172616E636520696E20616C6C206469E9
:1040300072656374696F6E730A546573747320617B
:104040007373756D65205A20686173206174206CEC
:10405000656173742034306D6D20706F736969749D
:1040600069766520636C656172616E63650A54658B
:10407000737473207374617274207769746820613B
:10408000204730205830205930205A30206D6F762C
:10409000650A486F6D696E672069732074686520D2
:1040A000657863657074696F6E2E204E6F20696E3F
:1040B000697469616C20706F736974696F6E206FC9
:1040C0007220636C656172616E6365206973206143
:1040D0007373756D65640A000A0A0A23232320544A
:1040E000696E79472053454C462054455354204827
:1040F000656C70202323230A004561636820242017
:10410000636F6D6D616E642061626F766520616CB6
:10411000736F20646973706C6179732074686520B3
:10412000746F6B656E20666F7220656163682073C3
:10413000657474696E6720696E205B205D20627211
:1041400061636B6574730A546F20766965772073B9
:10415000657474696E677320656E74657220612082
:10416000746F6B656E3A0A0A2020243C746F6B658D
:104170006E3E0A0A466F72206578616D706C65202C
:104180002479667220746F20646973706C61792081
:104190007468652059206D617820666565642072B9
:1041A0006174650A0A546F207570646174652073C8
:1041B000657474696E677320656E74657220746FC0
:1041C0006B656E20657175616C732076616C7565C9
:1041D0003A0A0A2020243C746F6B656E3E3D3C76A3
:1041E000616C75653E0A0A466F72206578616D7074
:1041F0006C6520247966723D38303020746F2073EE
:104200006574207468652059206D61782066656545
:1042100064207261746520746F20383030206D6DB9
:104220002F6D696E7574650A466F7220636F6E66D6
:10423000696775726174696F6E2064657461696C19
:1042400073207365653A2068747470733A2F2F6712
:1042500069746875622E636F6D2F73796E7468650B
:10426000746F732F54696E79472F77696B692F5478
:10427000696E79472D436F6E6669677572617469FF
:104280006F6E0A00546865736520636F6D6D616EB3
:104290006473206172652061637469766520666F5E
:1042A0007220636F6E66696775726174696F6E3ACA
:1042B0000A2020247379732053686F7720737973F1
:1042C00074656D202867656E6572616C2920736561
:1042D0007474696E67730A2020243120202053688B
:1042E0006F77206D6F746F722031207365747469FD
:1042F0006E677320286F72207768617465766572C7
:10430000206D6F746F7220796F752077616E7420E5
:10431000312C322C332C34290A20202478202020E0
:1043200053686F77205820617869732073657474BF
:10433000696E677320286F7220776861746576658F
:1043400072206178697320796F752077616E7420AF
:10435000782C792C7A2C612C622C63290A20202459
:104360006D20202053686F7720616C6C206D6F7416
:104370006F722073657474696E67730A20202471EC
:1043800020202053686F7720616C6C2061786973FE
:104390002073657474696E67730A2020246F20206F
:1043A0002053686F7720616C6C206F66667365744C
:1043B0002073657474696E67730A2020242420209A
:1043C0002053686F7720616C6C2073657474696E1C
:1043D00067730A2020246820202053686F77207498
:1043E0006869732068656C702073637265656E0A16
:1043F0000A000A0A0A2323232054696E79472043BE
:104400004F4E46494755524154494F4E2048656CDE
:1044100070202323230A000A466F722064657461AA
:10442000696C65642054696E794720696E666F20F7
:104430007365653A2068747470733A2F2F676974D6
:104440006875622E636F6D2F73796E746865746F13
:10445000732F54696E79472F77696B692F0A466FFE
:104460007220746865206C6174657374206669726B
:104470006D77617265207365653A20687474707336
:104480003A2F2F6769746875622E636F6D2F737989
:104490006E746865746F732F54696E79470A506C37
:1044A00065617365206C6F6720616E792069737335
:1044B00075657320617420687474703A2F2F777754
:1044C000772E73796E746865746F732E636F6D2FBA
:1044D000666F72756D730A486176652066756E0A3F
:1044E000000A4E6F74653A2054696E7947206765FB
:1044F0006E657261746573206175746F6D61746946
:104500006320737461747573207265706F72747355
:104510002062792064656661756C740A54686973F9
:104520002063616E2062652064697361626C6564FA
:1045300020627920656E746572696E6720247376D7
:104540003D300A536565207468652077696B692082
:1045500062656C6F7720666F72206D6F7265206484
:10456000657461696C732E0A005468657365206315
:104570006F6D6D616E647320617265206163746933
:1045800076652066726F6D2074686520636F6D6D4F
:10459000616E64206C696E653A0A205E7820202086
:1045A00020202020202020202020526573657420A8
:1045B00028636F6E74726F6C207829202D20736FC2
:1045C0006674776172652072657365740A20203F96
:1045D000202020202020202020202020204D61632A
:1045E00068696E6520706F736974696F6E20616EA3
:1045F000642067636F6465206D6F64656C207374FD
:104600006174650A202024202020202020202020E2
:104610002020202053686F7720616E6420736574BA
:1046200020636F6E66696775726174696F6E20735F
:10463000657474696E67730A202021202020202071
:10464000202020202020202046656564686F6C644F
:10465000202D2073746F70206D6F74696F6E2077DA
:104660006974686F7574206C6F73696E6720706F02
:10467000736974696F6E0A20207E2020202020201C
:10468000202020202020204379636C652053746112
:104690007274202D20726573746172742066726F5B
:1046A0006D2066656564686F6C640A202068202050
:1046B000202020202020202020202053686F7720D9
:1046C000746869732068656C702073637265656EC9
:1046D0000A202024682020202020202020202020A4
:1046E0002053686F7720636F6E66696775726174B7
:1046F000696F6E2068656C702073637265656E0A01
:104700002020247465737420202020202020202065
:104710004C6973742073656C662D74657374730AC9
:10472000202024746573743D4E20202020202020FA
:1047300052756E2073656C662D74657374204E0A15
:10474000202024686F6D653D31202020202020200E
:1047500052756E206120686F6D696E6720637963A2
:104760006C650A202024646566613D31202020208C
:10477000202020526573746F726520616C6C207309
:10478000657474696E677320746F20226661637448
:104790006F7279222064656661756C74730A000A11
:1047A0000A0A2323232054696E79472048656C70D8
:1047B000202323230A005B6A735D20206A736F6ED7
:1047C0002073657269616C697A65207374796C65B0
:1047D000253964205B303D72656C617865642C31ED
:1047E0003D7374726963745D0A005B6A765D2020B4
:1047F0006A736F6E20766572626F736974792531A2
:104800003564205B303D73696C656E742C313D6698
:104810006F6F7465722C323D6D657373616765737C
:104820002C333D636F6E666967732C343D6C696E23
:10483000656E756D2C353D766572626F73655D0AC8
:10484000005B656A5D2020656E61626C65206A733D
:104850006F6E206D6F646525313364205B303D746D
:104860006578742C313D4A534F4E5D0A007A597475
:10487000596D5968595F59545949593D593159230E
:10488000590C59FD58F058E458D058C358AE589AAE
:104890005897589458855870585B584C583C582A2B
:1048A000581358F657D957C057AA57995787577A68
:1048B0005768574E574B574857455742573F573CF5
:1048C0005739573657335730572D572A57275724BC
:1048D0005721571E571B571857155712570F570C6C
:1048E000570957065703570057FD56FA56F756F41F
:1048F00056F156EE56EB56E856E556E256DF56DCD4
:1049000056D956D656D356D056CD56CA56C756C483
:1049100056C156BE56BB56B856B556B256AF56AC33
:1049200056885668564E5634561A56F655D955C1BD
:1049300055AB5591556D5550553E551E550755EE85
:1049400054CC54B3549554795461544F5431541C3D
:10495000541854145410540C54085404540054FC67
:1049600053F853F453F053EC53E853E453E053DC5F
:1049700053C253A85395537953675350532F531E23
:1049800053FE52DE52C452AA529352605233521313
:1049900052F151CB51A451885169514F51355110A9
:1049A00051E750CF50A450785042500D50FB4FE982
:1049B0004FDA4FC74FAE4F8C4F7A4F684F564F4428
:1049C0004F324F204F0E4FFC4EEA4ED84EC64EB4DB
:1049D0004EA24E904E8C4E884E844E804E7C4E7829
:1049E0004E744E704E6C4E684E644E604E5C4E5827
:1049F0004E544E504E4C4E484E444E404E2C4E0E51
:104A00004EF24DC74DA24D7D4D794D754D714D6D99
:104A10004D694D654D614D5D4D594D554D514D4D56
:104A20004D494D454D314D154DF94CDD4CC14CA511
:104A30004C894C6D4C514C354C194CFD4BE14BDDC8
:104A40004BD94BD54BD14BCD4BC94BC54BB14B89FA
:104A50004B624B3C4B0F4BE94ABC4AB84AB44AB094
:104A60004A9D4A7C4A674A4A6F6767696E67206356
:104A700079636C65206661696C65640050726F6271
:104A80006520656E64706F696E742069732073743D
:104A9000617274696E6720706F696E740050726F16
:104AA0006265206379636C65206661696C6564008A
:104AB000323439003234380032343700486F6D698F
:104AC0006E67204572726F72202D20486F6D696E7F
:104AD00067207377697463686573206D6973636FAA
:104AE0006E6669677572656400486F6D696E6720F0
:104AF0004572726F72202D204E656761746976650C
:104B0000206C61746368206261636B6F6666004845
:104B10006F6D696E67204572726F72202D2054721E
:104B20006176656C206D696E2026206D617820614C
:104B30007265207468652073616D6500486F6D69EA
:104B40006E67204572726F72202D204C617463680D
:104B50002076656C6F63697479206973207A657259
:104B60006F00486F6D696E67204572726F72202DFD
:104B7000205365617263682076656C6F6369747930
:104B8000206973207A65726F00486F6D696E6720C7
:104B90004572726F72202D20426164206F72206E08
:104BA0006F206178697320737065636966696564F5
:104BB00000486F6D696E67206379636C652066617C
:104BC000696C656400323339003233380032333770
:104BD000003233360032333500323334003233336F
:104BE00000536F6674206C696D6974206578636525
:104BF00065646564202D2043206D617800536F66E5
:104C000074206C696D69742065786365656465649A
:104C1000202D2043206D696E00536F6674206C69EF
:104C20006D6974206578636565646564202D204234
:104C3000206D617800536F6674206C696D69742013
:104C40006578636565646564202D2042206D696E1A
:104C500000536F6674206C696D69742065786365B4
:104C600065646564202D2041206D617800536F6676
:104C700074206C696D69742065786365656465642A
:104C8000202D2041206D696E00536F6674206C6981
:104C90006D6974206578636565646564202D205AAC
:104CA000206D617800536F6674206C696D697420A3
:104CB0006578636565646564202D205A206D696E92
:104CC00000536F6674206C696D6974206578636544
:104CD00065646564202D2059206D617800536F66EE
:104CE00074206C696D6974206578636565646564BA
:104CF000202D2059206D696E00536F6674206C69F9
:104D00006D6974206578636565646564202D20583D
:104D1000206D617800536F6674206C696D69742032
:104D20006578636565646564202D2058206D696E23
:104D300000536F6674206C696D69742065786365D3
:104D40006564656400323139003231380032313700
:104D500000323136003231350032313400323133F5
:104D600000323132003231310032313000323039EC
:104D70000032303800323037003230360054726141
:104D800070657A6F696420706C616E6E6572206602
:104D900061696C656420746F20636F6E76657267FD
:104DA00065004C696D697420737769746368206865
:104DB0006974202D2053687574646F776E206F635B
:104DC000637572726564004D616368696E65206920
:104DD0007320616C61726D6564202D20436F6D6D71
:104DE000616E64206E6F742070726F63657373659B
:104DF00064004D6F7665206C657373207468616E16
:104E0000206D696E696D756D2074696D65004D6FFB
:104E10007665206C657373207468616E206D696EB1
:104E2000696D756D206C656E6774680047656E65A9
:104E30007269632054696E7947206572726F7200DF
:104E400031393900313938003139370031393600DC
:104E500031393500313934003139330031393200DC
:104E600031393100313930003138390031383800CA
:104E700031383700313836003138350031383400B8
:104E800031383300313832003138310031383000B8
:104E90005420776F726420697320696E76616C6943
:104EA00064005420776F7264206973206D69737396
:104EB000696E67005220776F726420697320696E93
:104EC00076616C6964005220776F72642069732088
:104ED0006D697373696E67005120776F7264206922
:104EE0007320696E76616C6964005120776F72641B
:104EF000206973206D697373696E67004C20776F4A
:104F0000726420697320696E76616C6964004C205C
:104F1000776F7264206973206D697373696E6700BF
:104F20004820776F726420697320696E76616C69BE
:104F300064004820776F7264206973206D69737311
:104F4000696E67004520776F726420697320696E0F
:104F500076616C6964004520776F72642069732004
:104F60006D697373696E67004420776F726420699E
:104F70007320696E76616C6964004420776F726497
:104F8000206973206D697373696E67005020776FB5
:104F90007264206973206E6F7420612076616C6981
:104FA0006420746F6F6C206E756D626572005020A6
:104FB000776F7264206973206E6F7420616E206950
:104FC0006E7465676572005020776F726420697334
:104FD000206E65676174697665005020776F726432
:104FE000206973207A65726F005020776F72642099
:104FF000697320696E76616C6964005020776F7206
:1050000064206973206D697373696E670041726310
:105010002073706563696669636174696F6E20658A
:1050200072726F72202D20656E64706F696E7420CD
:105030006973207374617274696E6720706F696E32
:10504000740041726320737065636966696361749B
:10505000696F6E206572726F72202D2072616469B3
:10506000757320617263206F7574206F6620746F92
:105070006C6572616E636500417263207370656375
:10508000696669636174696F6E206572726F722000
:105090002D206D697373696E67206F666673657422
:1050A00028732900417263207370656369666963C0
:1050B0006174696F6E206572726F72202D206D6948
:1050C0007373696E6720617869732865732900417D
:1050D00072632073706563696669636174696F6E7A
:1050E000206572726F72005370696E646C65206D1A
:1050F000757374206265207475726E696E672066C0
:105100006F72207468697320636F6D6D616E6400E7
:105110005370696E646C65206D75737420626520D0
:105120006F666620666F72207468697320636F6DA6
:105130006D616E64005370696E646C6520532077F6
:105140006F726420697320696E76616C69640053C4
:1051500070696E646C65205320776F726420697388
:10516000206D697373696E67005370696E646C6556
:105170002073706565642065786365656465642087
:105180006D6178696D756D005370696E646C652032
:1051900073706565642062656C6F77206D696E69F8
:1051A0006D756D0050726F6772616D6D6564207012
:1051B0006F696E742073616D652061732063757211
:1051C00072656E7420706F696E74004375747465D7
:1051D0007220636F6D70656E736174696F6E2063AA
:1051E000616E6E6F7420626520656E61626C6564CD
:1051F000005265717565737465642076656C6F63C4
:105200006974792065786365656473206C696D697C
:105210007473004730206F72204731206D757374AE
:105220002062652061637469766520666F7220472D
:10523000353300526F746172792061786573206331
:10524000616E6E6F74206265207573656420776986
:105250007468207468697320636F6D6D616E64009B
:10526000496E76657273652074696D65206D6F6433
:10527000652063616E6E6F7420626520757365646E
:105280002077697468207468697320636F6D6D613D
:105290006E64004665656472617465206E6F74208B
:1052A0007370656369666965640053656C656374F2
:1052B000656420706C616E6520697320696E76612B
:1052C0006C69640053656C656374656420706C611F
:1052D0006E65206973206D697373696E670041782C
:1052E00069732074617267657420706F7369746983
:1052F0006F6E20697320696E76616C696400417815
:1053000069732074617267657420706F7369746962
:105310006F6E206973206D697373696E67004178E1
:1053200069732069732064697361626C656400410C
:1053300078697320697320696E76616C6964206690
:105340006F72207468697320636F6D6D616E6400A5
:10535000417869732063616E6E6F7420626520709E
:10536000726573656E74004178697320776F72643B
:10537000206D697373696E670047636F6465206DA4
:105380006F64616C2067726F75702076696F6C61F5
:1053900074696F6E004D20636F646520756E737560
:1053A00070706F727465640047636F646520636F2B
:1053B0006D6D616E6420756E737570706F7274655B
:1053C000640047656E657269632047636F6465209A
:1053D000696E707574206572726F720031323900B7
:1053E0003132380031323700313236003132350057
:1053F0003132340031323300313232003132310057
:10540000313230003131390031313800313137003B
:105410003131360031313500313134004A534F4E8D
:1054200020737472696E6720746F6F206C6F6E6783
:10543000004A534F4E20696E707574206861732066
:10544000746F6F206D616E79207061697273004AAC
:10545000534F4E2073796E746178206572726F724B
:1054600000496E7075742076616C75652072616E8E
:105470006765206572726F7200496E707574206581
:10548000786365656473206D6178696D756D2076EC
:10549000616C756500496E707574206C657373205E
:1054A0007468616E206D696E696D756D2076616CD2
:1054B000756500496E707574206578636565647301
:1054C000206D6178206C656E67746800436F6D6D48
:1054D000616E64206E6F74206163636570746564CF
:1054E00020617420746869732074696D650050616F
:1054F00072616D657465722063616E6E6F74206297
:1055000065207265616400506172616D65746572D9
:1055100020697320726561642D6F6E6C7900556E21
:10552000737570706F72746564206E756D626572EC
:10553000206F72204A534F4E20747970650042618B
:1055400064206E756D62657220666F726D617400A5
:10555000496E76616C6964206F72206D616C666F54
:10556000726D656420636F6D6D616E6400556E725F
:1055700065636F676E697A656420636F6D6D616ED8
:1055800064206F7220636F6E666967206E616D655F
:105590000047656E65726963206173736572746933
:1055A0006F6E206661696C757265004D656D6F7216
:1055B00079206661756C74206465746563746564D4
:1055C00000537461636B206F766572666C6F772031
:1055D000646574656374656400436F6E74726F6CA8
:1055E0006C657220617373657274696F6E20666199
:1055F000696C7572650043616E6F6E6963616C20E2
:105600006D616368696E6520617373657274696F3B
:105610006E206661696C75726500506C616E6E65B6
:105620007220617373657274696F6E206661696C54
:10563000757265005374657070657220617373656F
:105640007274696F6E206661696C75726500456E73
:10565000636F64657220617373657274696F6E2025
:105660006661696C75726500494F207375622D73B0
:10567000797374656D20617373657274696F6E20E0
:105680006661696C75726500436F6E666967207349
:1056900075622D73797374656D20617373657274AF
:1056A000696F6E206661696C757265003839003803
:1056B0003800383700383600383500383400383391
:1056C00000383200383100383000373900373800C0
:1056D0003737003736003735003734003733003777
:1056E000320037310037300036390036380036376F
:1056F0000036360036350036340036330036320098
:105700003631003630003539003538003537003550
:10571000360035350035340035330035320035314B
:105720000035300034390034380034370034360066
:105730003435003434003433003432003431003432
:1057400030003339003338003337003336004261DC
:105750006420737461747573207265706F72742045
:1057600073657474696E67005065727369737465EC
:105770006E6365206572726F7200466C6F61742093
:105780006973204E414E00466C6F6174206973202E
:10579000696E66696E697465004D6F76652074691F
:1057A0006D65206973204E414E004D6F7665207403
:1057B000696D6520697320696E66696E697465003C
:1057C00047656E6572696320657863657074696F9B
:1057D0006E207265706F7274004661696C6564203A
:1057E000746F2067657420706C616E6E65722062E4
:1057F00075666665720053797374656D20616C61BE
:10580000726D202D207368757474696E6720646FE3
:10581000776E00496E697469616C697A6174696F49
:105820006E206661696C75726500526561642D6FEA
:105830006E6C79206164647265737300496E766181
:105840006C696420416464726573730044697669AD
:105850006465206279207A65726F00466C6F6174AE
:10586000696E6720706F696E74206572726F720066
:10587000496E7465726E616C2072616E6765206539
:1058800072726F7200496E7465726E616C2065721F
:10589000726F720031390031380046756E63746979
:1058A0006F6E206973207374756262656400456E63
:1058B000746572696E6720626F6F74206C6F6164CB
:1058C000657200496E697469616C697A696E670016
:1058D0004275666665722066756C6C202D20666167
:1058E00074616C004275666665722066756C6C004A
:1058F00042756666657220656D707479004E6F2022
:105900007375636820646576696365004D6178200E
:1059100066696C652073697A65206578636565647E
:1059200065640046696C65206E6F74206F70656EEB
:1059300000456E64206F662066696C6500456E6484
:10594000206F66206C696E65004861726420726524
:10595000736574005465726D696E617465640043AB
:105960006F6D706C657465004E6F6F700045616798
:1059700061696E004572726F72004F4B005B70314F
:10598000706F665D2070776D207068617365206F41
:1059900066662020202531352E3366205B302E2E82
:1059A000315D0A005B70317770685D2070776D2023
:1059B0006363772070686173652068692531352ECF
:1059C0003366205B302E2E315D0A005B70317770BC
:1059D0006C5D2070776D20636377207068617365FC
:1059E000206C6F2531352E3366205B302E2E315DD5
:1059F0000A005B70317773685D2070776D20636398
:105A0000772073706565642068692531352E3066AE
:105A10002052504D0A005B703177736C5D207077B7
:105A20006D20636377207370656564206C6F25312A
:105A3000352E30662052504D0A005B70316370681D
:105A40005D2070776D2063772070686173652068D2
:105A500069202531352E3366205B302E2E315D0ACC
:105A6000005B703163706C5D2070776D2063772010
:105A70007068617365206C6F202531352E33662088
:105A80005B302E2E315D0A005B70316373685D20E0
:105A900070776D2063772073706565642068692076
:105AA0002531352E30662052504D0A005B7031632F
:105AB000736C5D2070776D2063772073706565640B
:105AC000206C6F202531352E30662052504D0A0053
:105AD0005B70316672715D2070776D2066726571E2
